:020000040800F2
:10000000203D0020A1010008C9010008CB01000823
:10001000CD010008CF010008D1010008D30100087C
:10002000D3010008D3010008D3010008D301000860
:10003000D3010008D3010008F9080008E9480008C6
:10004000DB160008B915000809160008D7150008C6
:1000500019150008C3150008D3140008DD140008A2
:10006000F1140008FB140008051500081F1400080F
:1000700029140008331400083D1400084714000830
:10008000511400085B140008B1130008D9130008CC
:10009000BB130008C5130008CF1300080F15000894
:1000A0001316000831160008271600081D16000850
:1000B0003B160008451600084F1600084B150008AF
:1000C000411500085F15000855150008EB150008DC
:1000D000F51500089F160008A9160008B3160008B9
:1000E000E7140008CD1500088715000877160008EA
:1000F000951600088B160008811600086514000884
:100100002D150008E115000859160008FF15000814
:10011000BD160008C7160008631600086D16000813
:100120006F14000879140008831400088D14000867
:1001300097140008BF140008C9140008011400082F
:10014000E3130008ED130008F71300087D150008FD
:10015000A1140008AB140008B5140008D11600085B
:100160007315000869150008A51500089B150008FF
:10017000AF15000891150008151400080B140008AD
:100180003715000823150008DFF810D000F036FB03
:10019000004800474D780008AFF30080203D002064
:1001A0000D488047DFF83400016841F470010160B8
:1001B000BFF34F8FDFF82800016821F04041016054
:1001C000BFF36F8F07480047FEE7FEE7FEE7FEE755
:1001D000FEE7FEE7FEE700002D6A000888ED00E07C
:1001E00034EF00E08901000872B6704762B67047CC
:1001F000EFF3108072B6704780F31088704730BFFD
:10020000704720BF7047B0FA80F0704790FAA0F0B6
:10021000B0FA80F0704790FAA0F07047202A04DB13
:10022000203A21FA02F00021704721FA02F3D0406F
:10023000C2F120029140084319467047D2B201E052
:1002400000F8012B491EFBD270470022F6E710B5DB
:1002500013460A4604461946FFF7F0FF204610BD34
:100260002DE9FE4F804681EA0300C00F0C46009046
:1002700021F0004123F00045B8EB0200A94105D26E
:100280004046214690461C460B46024623F000405D
:10029000104347D0270DC7F30A00C3F30A51029059
:1002A000401A019040286BDAC3F3130040F4801B1E
:1002B0000098924620B10023D2EB030A63EB0B0BAC
:1002C00001985946C0F14002504600F0B1F9064687
:1002D0000D4650465946019A00F0B9F910EB080056
:1002E0006141002487EA115284EAE7731A4340D03F
:1002F000009A62B3019A012A4FEA075215DC001BEB
:1003000061EB02014FF0004202EA0752CDE90042E0
:10031000001C41F5801132462B4600F0F0F903B085
:10032000BDE8F08F40462146F9E7001B61EB020172
:10033000001C41F5801300185B412018A2F500173E
:1003400047EB030140EAD570B6196D4111E06D0825
:100350004FEA360645EAC0754FEA0752001B61EBCB
:100360000201001C41F5801149084FEA30000019D4
:10037000514132462B4603B0BDE8F04F00F0B0B912
:100380000098012240000023D0EB020263EBE073EF
:10039000009821464FEAE074B8EB000061EB0401DD
:1003A000E9E783F000435BE781F0004158E72DE97E
:1003B000FE4F81EA030404F0004421F00041009460
:1003C0004FF0000B23F0004350EA01045ED052EAE4
:1003D00003045BD0C3F30A54C1F30A552C44A4F2BE
:1003E000F3340194A0FB0254C1F3130141F48011D2
:1003F000C3F3130343F4801301FB024400FB034ED9
:10040000840A970A44EA815447EA8357A4FB0768A1
:1004100002958D0A05FB07854FEA932C04FB0C54CB
:100420002705029D4FEA065847EA1637B5EB08053F
:100430006EEB070C870E920E47EA811742EA831291
:10044000A7FB0201B6EB0B0164EB00042B0D43EAA2
:100450000C335E1844EB1C50DA465146E7FB0201B0
:10046000C5F313044FEA0B3343EA14534FEA043243
:10047000019C43EA0603A4F10C040294009CCDE91C
:1004800000B400F03CF903B0BDE8F08F0020014655
:10049000F9E72DE9F04D81EA030404F0004B21F067
:1004A000004514464FF0000A23F0004150EA0502CF
:1004B00020D054EA01021DD0C5F30A570246C5F305
:1004C0001303C1F31300C1F30A5640F4801543F43B
:1004D0008013A7EB0608101BD64608F2FD3873EB15
:1004E000050002D308F1010801E092185B41B8F160
:1004F000000F03DA00200146BDE8F08D00204FF424
:100500008011064684460EE0171B73EB050705D3E2
:10051000121B63EB050306434CEA010C49084FEA42
:10052000300092185B4150EA0107EDD152EA030016
:1005300012D082EA040083EA0501084305D0101BAB
:10054000AB4106D20122002306E000224FF0004317
:1005500002E06FF0010253101AEB06004CEB085159
:1005600010EB0A0041EB0B01BDE8F04D00F0B8B80C
:1005700000F0004230F000400AD0C10D01F560717A
:10058000C0F3160042EA0151C20840071143704708
:10059000002001467047000030B5041E71F10004D0
:1005A00004DB4FF00044404264EB0101141E73F180
:1005B000000405DB1C464FF00043524263EB04038A
:1005C0008B4208BF824230BD30B5041E71F1000479
:1005D00004DB4FF00044404264EB0101141E73F150
:1005E000000405DB1C464FF00043524263EB04035A
:1005F000994208BF904230BD01F0004330B421F071
:10060000004150EA010206D00A0DA2F56072C1F362
:100610001301002A02DC30BC00207047440F44EA7A
:10062000C104C100E01830BC00EBC25000F021B89A
:10063000202A04DB203A00FA02F1002070479140A2
:10064000C2F1200320FA03F3194390407047202A97
:1006500006DBCB17203A41FA02F043EAE07306E0EA
:1006600041FA02F3D040C2F12002914008431946FA
:1006700070470029A8BF7047401C490008BF20F000
:100680000100704710B4B0FA80FC00FA0CF050EA98
:10069000010404BF10BC704749B1CCF1200421FA19
:1006A00004F411FA0CF118BF012121430843A3EB14
:1006B0000C01CB1D4FEA00614FEA102042BF002021
:1006C00010BC704700EBC35010440029A4BF10BCFD
:1006D0007047401C490008BF20F0010010BC704763
:1006E00010B5141E73F1000408DA401C41F100013A
:1006F00092185B411A4301D120F0010010BD2DE991
:10070000F04D92469B4611B1B1FA81F202E0B0FA87
:1007100080F220329046FFF78BFF04460F4640EAF6
:100720000A0041EA0B0153465A46084313D01146CA
:1007300053EA010019D0C8F140025046FFF76EFDA0
:1007400005460E46504659464246FFF771FF08439C
:1007500005D0012004E020463946BDE8F08D002098
:10076000054346EAE0762C4337430A986305E40ADA
:10077000A0EB08000022FD0A44EA47540A3002D5E3
:1007800000200146E9E7010510196941DDE9084546
:1007900000196941BDE8F04DA2E70EB5C10F80EA2E
:1007A000E0700844CA07002140F233438DE80E0090
:1007B0000A460B46FFF7A3FF03B000BD70B5C1F3B7
:1007C0000A5201F000450024C1F3130140F2FF3347
:1007D00041F480119A4201DA002070BD40F23343A7
:1007E0009A42A2F2334203DC5242FFF717FD00E0C7
:1007F00090402C43F1D0404270BD0000064C074DA4
:1008000006E0E06840F0010394E8070098471034E0
:10081000AC42F6D3FFF7BCFC887C0008A87C00083B
:100820000EB540F2334102910021CDE900110A4694
:100830000B46FFF764FF03B000BD0000EFF3098132
:1008400041B1F1EE101A40F8041D20ED200A3E4996
:100850000A6810607047B0EC200A02C8E1EE101A76
:100860003A490A681060704772B64EF62250CEF2CE
:10087000000040F2FF01C0F2000101704FF00000E3
:1008800080F3098803F0CCFE40F2E800C2F20000D9
:10089000016881F3088840F26E00C2F2000040F265
:1008A0006F01C2F200010A78027040F2E005C2F264
:1008B000000540F2E401C2F200010A682A601068F3
:1008C00080F30988EFF3148040F0020080F314886D
:1008D000BFF36F8FBDE8F00F0FBCBDE8005006BC42
:1008E00062B608471A484FF08051016070471848B7
:1008F0004FF080510160704772B6EFF3098020E934
:10090000F00F40F2E005C2F200052E683060744638
:1009100003F086FE40F26E00C2F2000040F26F016A
:10092000C2F200010A78027040F2E401C2F2000152
:100930000A682A6044F0F40E1068B0E8F00F80F303
:10094000098862B670470000E0000020E400002043
:1009500004ED00E008B56B4600220EA1104803F03C
:1009600049F86B4601220FA1114803F043F86A468B
:1009700010A1134802F066FC6B46012211A1144835
:1009800002F04AFE6B46002212A1154802F03AF925
:1009900008BD000053656D205465737400000000AD
:1009A000E42000205472616365204C6F636B00008B
:1009B000BC2000204D757465782054657374000068
:1009C0000C21002051756575652054657374000015
:1009D0003C210020466C6167205465737400000060
:1009E0006C21002000B58BB00AA8032100220592DB
:1009F000CDE9062108904FF480712E48406E2D4BB2
:100A0000CDE90130CDE90312032013462A4A2BA178
:100A10000090304803F066FA0AA8032100220592EC
:100A2000CDE90621089011464FF480722A48406EA5
:100A3000294BCDE90130CDE9032103200023274ACA
:100A40001EA10090264803F04DFA0AA807210022B3
:100A50000592CDE9062108904FF400712148D0F8A5
:100A6000CC00204BCDE90130CDE903120420134620
:100A70001D4A1EA10090214803F034FA0AA807215C
:100A800000220592CDE90621089011464FF400722C
:100A90001B48D0F8CC001A4BCDE90130CDE9032139
:100AA00004200023174A11A10090174803F01AFAF6
:100AB0000BB000BD7C060020FD1000084B65726E77
:100AC000656C204F626A65637473205461736B2098
:100AD00030000000BC0500203C0B0020791100080C
:100AE0007C0A0020FC0F00200D0B0008465020203F
:100AF0004571756174696F6E203100003C0F0020F4
:100B0000BC180020A50E0008FC1700202DED108B4E
:100B100082B0B0E1DFEDD89AB0EE080AB0EE408ABC
:100B2000B1EE000AB0EE409A38EE490AF0EE408A83
:100B30000027F5EEC08AF1EE10FA11D218EE900AF5
:100B4000FFF716FD41EC1B0B9FEDCC0B53EC102B6C
:100B5000FFF72DFC41EC1A0BFFF74EFD08EE900A53
:100B600068E138EE090A10EE101A0846FFF700FD9A
:100B700041EC1B0B9FEDC30B53EC102BFFF789FCD3
:100B800041EC1A0BFFF738FD044618EE100AFFF788
:100B9000EFFC41EC1D0BB0EE4D0AF0EE6D0A05F0D6
:100BA0009BFFB0EE40CAF0EE60CA9FEDB80B53EC6D
:100BB000102B51EC1C0BFFF7FAFB41EC1B0B18EE52
:100BC000100AFFF7D5FC41EC1D0BB0EE4D0AF0EE1C
:100BD0006D0A06F091F9B0EE40CAF0EE60CA9FEDE2
:100BE000AD0B53EC102B51EC1C0BFFF7E0FB41EC71
:100BF0001F0B53EC1B2BFFF7D4FB41EC1E0B18EE25
:100C0000100AFFF7B5FC41EC1C0B9FED9C0B53EC5D
:100C1000102BFFF7CCFB41EC1B0BB0EE4B0AF0EEB8
:100C20006B0A05F0BDFFB0EE40AAF0EE60AA53ECEF
:100C30001E2B51EC1A0BFFF7BAFBCDE900019DED1D
:100C4000000B51EC100BFFF7D7FC05462046FFF7D1
:100C50008FFC41EC1D0BB0EE4D0AF0EE6D0A05F075
:100C60003BFFB0EE40CAF0EE60CA9FED880B53EC3C
:100C7000102B51EC1C0BFFF79AFB41EC1E0B20468E
:100C8000FFF776FC41EC1D0BB0EE4D0AF0EE6D0A5D
:100C900006F032F9B0EE40CAF0EE60CA9FED7D0B6F
:100CA00053EC102B51EC1C0BFFF781FB41EC1B0BA1
:100CB00053EC1E2BFFF775FB41EC1A0B2046FFF798
:100CC00057FC41EC1C0B9FED6D0B53EC102BFFF709
:100CD0006EFB41EC1B0BB0EE4B0AF0EE6B0A05F01D
:100CE0005FFFB0EE40FAF0EE60FA53EC1A2B51ECD5
:100CF0001F0BFFF75CFBCDE900019DED000B51ECF4
:100D0000100BFFF779FC06462846FFF731FC41EC53
:100D10001A0B9FED620B53EC102BFFF755FC0BD217
:100D20003046FFF725FC41EC1A0B9FED5C0B53ECB2
:100D3000102BFFF731FC17D32846FFF719FC41ECC5
:100D40001A0B9FED560B53EC102BFFF725FC0ED220
:100D50003046FFF70DFC41EC1A0B9FED500B53ECA6
:100D6000102BFFF731FC02D209EE104A33E028467F
:100D7000FFF7FEFB41EC1A0B9FED480B53EC102BD9
:100D8000FFF722FC0BD23046FFF7F2FB41EC1A0BC7
:100D90009FED420B53EC102BFFF716FC17D32846A0
:100DA000FFF7E6FB41EC1A0B9FED3C0B53EC102BCD
:100DB000FFF7F2FB0ED23046FFF7DAFB41EC1A0BDD
:100DC0009FED360B53EC102BFFF7E6FB02D208EE3B
:100DD000104A00E04BE038EE490AF0EE408AF5EEAA
:100DE000C08AF1EE10FA11D218EE900AFFF7C0FB9C
:100DF00041EC1B0B9FED210B53EC102BFFF7D7FAA7
:100E000041EC1A0BFFF7F8FB08EE900A781CC7B20A
:100E100001F01EFE80464FF47A70B8FBF0F100FB43
:100E2000118801E0A8F10108B8F1000FFAD1102FE4
:100E300000D91CE018EE900AFFF79AFB41EC1A0B60
:100E400019EE900AFFF794FB41EC1C0B9FED0D0B84
:100E500053EC102BFFF7ABFA41EC1B0B53EC1A2BA6
:100E6000FFF79AFBFFF47DAE142F3FF67AAE00BF7A
:100E7000102F00D100BF4DE6ACC5273700000000A1
:100E80000000F0BF00000000000000400000000073
:100E90000000E03F9A999999999909400000000053
:100EA000000000002DED0C8B15E19FED8BAAB7EE35
:100EB000000AF0EE408AB1EE000AF0EE409A38EEF9
:100EC000E90AB0EE408A0026B5EEC08AF1EE10FACB
:100ED00011D218EE100AFFF74BFB41EC1C0B9FEDF3
:100EE0007F0B53EC102BFFF762FA41EC1B0BFFF763
:100EF00083FB08EE100AD0E038EEA90A10EE101AB3
:100F00000846FFF735FB41EC1C0B9FED760B53ECCD
:100F1000102BFFF7BEFA41EC1B0BFFF76DFB09EE40
:100F2000100A28EEA80A10EE101A0846FFF720FB58
:100F300041EC1C0B9FED6D0B53EC102BFFF731FABE
:100F400041EC1B0BFFF758FB044629EE090A10EE93
:100F5000101A0846FFF70CFB41EC1C0B9FED630BCE
:100F600053EC102BFFF71DFA41EC1B0BFFF744FB72
:100F700005462046FFF7FCFA41EC1B0B9FED5D0B8D
:100F800053EC102BFFF720FB0BD22846FFF7F0FAAB
:100F900041EC1B0B9FED570B53EC102BFFF7FCFAAA
:100FA00017D32046FFF7E4FA41EC1B0B9FED510BE2
:100FB00053EC102BFFF7F0FA0ED22846FFF7D8FAC1
:100FC00041EC1B0B9FED4B0B53EC102BFFF7FCFA86
:100FD00002D2F0EE499A33E02046FFF7C9FA41EC1D
:100FE0001B0B9FED440B53EC102BFFF7EDFA0BD2CC
:100FF0002846FFF7BDFA41EC1B0B9FED3E0B53EC6F
:10100000102BFFF7E1FA17D32046FFF7B1FA41ECB6
:101010001B0B9FED380B53EC102BFFF7BDFA0ED2D4
:101020002846FFF7A5FA41EC1B0B9FED320B53EC62
:10103000102BFFF7B1FA02D2F0EE498A00E046E049
:1010400038EEE90AB0EE408AB5EEC08AF1EE10FA49
:1010500011D218EE100AFFF78BFA41EC1C0B9FED32
:101060001F0B53EC102BFFF7A2F941EC1B0BFFF702
:10107000C3FA08EE100A701CC6B201F0E9FC07467C
:101080004FF47A70B7FBF0F100FB117700E07F1EA0
:10109000002FFCD1122E00D919E018EE100AFFF72C
:1010A00067FA41EC1B0B1AEE100AFFF761FA41ECEC
:1010B0001D0B9FED0C0B53EC102BFFF778F941EC57
:1010C0001C0B53EC1B2BFFF767FAFFF415AF00BFA7
:1010D000122E00D100BFE8E6ACC5273700000000A3
:1010E0000000F0BF00000000000000400000000011
:1010F0000000084000000000000000000EB532E0D3
:1011000002AA0021184802F06DFD02A800231A4629
:1011100019460090154802F0CBF802A8002164237C
:101120000A46CDE90010084603F028FB02AA002178
:101130000E4802F0B3F902A80023012211460090E4
:101140000B4802F06FFB02AB00220121094801F0BD
:1011500011FF02A800210A230A46CDE90010084623
:1011600003F00CFB00BFCBE7E42000200C210020A3
:101170003C2100206C2100201FB536E003A800238D
:101180001A4619460090194802F068FC03A800238B
:101190001A4619460090164802F08AF803AA002160
:1011A000134802F07BF903A8002102AB0A46CDE9FF
:1011B0000010104802F066FA03A800214FF4827371
:1011C0000A46CDE9001001210B4801F04FFD03A8AC
:1011D00000210B460122CDE90010084603F0CEFAAB
:1011E0004FF40051054800F0D5FCC7E7E42000208B
:1011F0000C2100203C2100206C210020000400482C
:1012000088B000240125022603274FF004084FF080
:1012100005094FF0060A4FF0070B08200690092039
:1012200005900A2004900B2003900C20029000F0FF
:1012300090F800F065FA07A802F0CAFD00F0CEFAB7
:10124000FFF788FBFFF7CEFB2BE007A80021642304
:101250000A46CDE90010084603F090FA04BB012DC0
:101260001ED1022E1CD1032F1AD1B8F1040F17D1B1
:10127000B9F1050F14D1BAF1060F11D1BBF1070F67
:101280000ED1069808280BD10598092808D1049892
:101290000A2805D103980B2802D102980C2800D007
:1012A00000BFD2E77047000010B5002400BF00BFA8
:1012B000FEF79EFF044600BF00F0BCFA00BF0F48D7
:1012C0000F4908600F48104908601048104908602D
:1012D0001048114908601148114908601148124925
:1012E000086012481249086000BF00F0BDFA00BF54
:1012F0002046FEF781FF00BF00BF10BD3713000876
:101300002C00002039130008300000203B13000897
:1013100034000020A5120008380000203513000812
:101320003C0000203D130008400000203F1300084F
:10133000440000207047704770477047704710B5F1
:1013400000F038FC10BD10B500F0CCFD044620467E
:1013500010BD10B505F039FB01F012FB10BD10B542
:10136000FEF742FF10BD000070B50446002600BF26
:1013700000BFFEF73DFF064600BF00F05BFA00BF6E
:1013800001F0DCFE00BF00F06FFA00BF3046FEF750
:1013900033FF00BF00BF522C04D2044850F8245041
:1013A00005B1A84701F0E0FE70BD000094210020C7
:1013B00010B51220FFF7D8FF10BD10B51420FFF7AD
:1013C000D3FF10BD10B51520FFF7CEFF10BD10B52F
:1013D0001620FFF7C9FF10BD10B51320FFF7C4FF9B
:1013E00010BD10B54020FFF7BFFF10BD10B5412064
:1013F000FFF7BAFF10BD10B54220FFF7B5FF10BDD3
:1014000010B53F20FFF7B0FF10BD10B54F20FFF71C
:10141000ABFF10BD10B54E20FFF7A6FF10BD10B5F5
:101420000B20FFF7A1FF10BD10B50C20FFF79CFFAC
:1014300010BD10B50D20FFF797FF10BD10B50E20A1
:10144000FFF792FF10BD10B50F20FFF78DFF10BD05
:1014500010B51020FFF788FF10BD10B51120FFF761
:1014600083FF10BD10B52F20FFF77EFF10BD10B514
:101470003820FFF779FF10BD10B53920FFF774FF52
:1014800010BD10B53A20FFF76FFF10BD10B53B201F
:10149000FFF76AFF10BD10B53C20FFF765FF10BDD8
:1014A00010B54420FFF760FF10BD10B54520FFF7D1
:1014B0005BFF10BD10B54620FFF756FF10BD10B5FD
:1014C0003D20FFF751FF10BD10B53E20FFF74CFF48
:1014D00010BD10B50620FFF747FF10BD10B507205F
:1014E000FFF742FF10BD10B52820FFF73DFF10BDEC
:1014F00010B50820FFF738FF10BD10B50920FFF721
:1015000033FF10BD10B50A20FFF72EFF10BD10B538
:101510001720FFF729FF10BD10B50420FFF724FFA7
:1015200010BD10B55120FFF71FFF10BD10B53020C2
:10153000FFF71AFF10BD10B55020FFF715FF10BDC3
:1015400010B52020FFF710FF10BD10B51F20FFF7CA
:101550000BFF10BD10B52220FFF706FF10BD10B520
:101560002120FFF701FF10BD10B54920FFF7FCFE59
:1015700010BD10B54820FFF7F7FE10BD10B5432091
:10158000FFF7F2FE10BD10B52A20FFF7EDFE10BDEB
:1015900010B54D20FFF7E8FE10BD10B54B20FFF74A
:1015A000E3FE10BD10B54A20FFF7DEFE10BD10B5FA
:1015B0004C20FFF7D9FE10BD10B50120FFF7D4FE77
:1015C00010BD10B50520FFF7CFFE10BD10B52920C6
:1015D000FFF7CAFE10BD10B50320FFF7C5FE10BD12
:1015E00010B53120FFF7C0FE10BD10B52320FFF766
:1015F000BBFE10BD10B52420FFF7B6FE10BD10B520
:101600003320FFF7B1FE10BD10B50220FFF7ACFE8E
:1016100010BD10B51820FFF7A7FE10BD10B51B2098
:10162000FFF7A2FE10BD10B51A20FFF79DFE10BDFA
:1016300010B51920FFF798FE10BD10B51C20FFF75C
:1016400093FE10BD10B51D20FFF78EFE10BD10B526
:101650001E20FFF789FE10BD10B53220FFF784FE73
:1016600010BD10B53620FFF77FFE10BD10B5372036
:10167000FFF77AFE10BD10B52B20FFF775FE10BDE9
:1016800010B52E20FFF770FE10BD10B52D20FFF70E
:101690006BFE10BD10B52C20FFF766FE10BD10B517
:1016A0002520FFF761FE10BD10B52620FFF75CFE78
:1016B00010BD10B52720FFF757FE10BD10B5342020
:1016C000FFF752FE10BD10B53520FFF74DFE10BDDF
:1016D00010B54720FFF748FE10BD10B50020FFF7FA
:1016E00043FE10BD70B5FFF72EFE044603480068A8
:1016F000B4FBF0F5284603F017F970BD4C790008EB
:1017000010B500F033F900F003F800F0F3F810BD65
:1017100070B500260020184908801849088018492B
:101720000860184908601849086018490860184995
:101730000860002400BFFEF75BFD064600BF0025E1
:101740000BE000201049086000F074F800F08CF8FD
:101750000D4800680444681C85B2002DF1D00C4887
:1017600004600020084908600849086000BF30464E
:10177000FEF742FD00BF70BD080000200A000020F7
:101780000C00002010000020180000201C00002089
:101790001400002001460846044A1268904203D90A
:1017A000024A1268801A00E00020704714000020EE
:1017B00070B5002500BFFEF71BFD054600BF0648BB
:1017C000046800BF2846FEF717FD00BF2046FFF75C
:1017D000E1FF0646304670BD1800002070B50025B8
:1017E000FFF7E6FF044600BFFEF702FD054600BF17
:1017F00000200449086000BF2846FEF7FDFC00BF3A
:10180000204670BD1800002070B5002500BFFEF70F
:10181000EFFC054600BF0648046800BF2846FEF7F7
:10182000EBFC00BF2046FFF7B5FF0646304670BD13
:101830001C00002010B509480088401C074908809A
:101840000748008818B900F0BBF80649086004484A
:101850000088401C0249088010BD000008000020DC
:101860000A0000200C00002010B50F480088401E20
:101870000D49088008460088A0B900F0A1F80B497E
:101880000860084600680A490968441A094800685F
:10189000A04201D20748046007480068A04201D274
:1018A0000548046010BD00000A0000201000002060
:1018B0000C000020180000201C00002010B500249F
:1018C00000BF00BFFEF794FC044600BFFFF7B2FF65
:1018D00000BF1021064801F001F900BFFFF7C4FF67
:1018E00000BF2046FEF788FC00BF00BF10BD00000F
:1018F000DC22002010B5FFF7E1FF10BD2DE9F0411B
:1019000005460C46002714B900BF00F02DF81DB99C
:101910000A202080BDE8F0811021284605F047F814
:101920000646102E19D200BF00BFFEF761FC074625
:1019300000BFFFF77FFF00BF10222946094805F0CE
:1019400013F800BFFFF790FF00BF3846FEF754FCC6
:1019500000BF00BF0020208002E04FF47A7020809A
:1019600000BFD7E7DC22002000BFFEE710B5002053
:101970000249086000F00AF810BD000004000020D1
:1019800001490860704700000400002010B5FFF70F
:10199000DAFC04460848006840F080700649086098
:1019A0000020064948600846006840F001000860D1
:1019B0002046FFF7E5FF10BDFCED00E0001000E061
:1019C0000149486870470000001000E072B600BF8F
:1019D000FEE7000078B50346002200240020C6E0A0
:1019E000012696400D6805EA0604002C72D04D6869
:1019F000022D02D04D68122D13D1D60803F1200517
:101A000055F826005507EE0E0F25B540A84356079A
:101A1000F60E0D69B5402843D60803F1200545F8B8
:101A20002600186856000325B540A8430D7905F037
:101A300003055600B540284318604D68012D08D0B5
:101A40004D68022D05D04D68112D02D04D68122D24
:101A500013D1986856000325B540A8435600CD68B9
:101A6000B54028439860586801259540A8430D79F2
:101A7000C5F30015954028435860D86856000325E3
:101A8000B540A84356008D68B5402843D8604D68DE
:101A900005F08055B5F1805F68D100BF374DAD6965
:101AA00045F00105354EB5613546AD6905F00105D6
:101AB000009500BF00BF4FEAB635960855F82600DE
:101AC00095072E0F0F25B540A843B3F1904F02D1D3
:101AD000002510E04AE02A4DAB4201D101250AE081
:101AE000284DAB4201D1022505E0274DAB4201D183
:101AF000032500E005259607360FB5402843234D02
:101B0000960845F82600224D2868A0434D6805F444
:101B10008035B5F5803F00D120431D4D28602D1D37
:101B20002868A0434D6805F40035B5F5003F00D1A5
:101B30002043174D2D1D28602D1D2868A0434D689A
:101B400005F48015B5F5801F00D12043104D0835F0
:101B500028602D1D2868A0434D6805F40015B5F5D3
:101B6000001F00D120430A4D0C352860521C0D681F
:101B7000D540002D7FF434AF78BD00000010024046
:101B80000004004800080048000C0048080001401C
:101B90000004014042694A40426170470AB18161D4
:101BA00000E0816270470000014800687047000053
:101BB000EC00002003480068034909780844014903
:101BC00008607047EC000020F400002010B50848C1
:101BD000006840F0100006490860032000F01AF881
:101BE0000F2000F007F800F013F8002010BD0000EF
:101BF0000020024010B50446002000F00BF8034816
:101C0000007808B1FFF76EFD002010BD54000020E1
:101C10007047000000BF00F00702064B19684FF63E
:101C2000FF031940044B0B4343EA0221014B1960A7
:101C300000BF70470CED00E00000FA0570B50446E7
:101C40000D4600260CB9012070BDA248006800F0C6
:101C50000700A8420ED29F48006820F007002843E2
:101C60009C4908600846006800F00700A84201D0BF
:101C70000120E9E7207800F00200022807D1964809
:101C8000406820F0F000A16808439349486020783C
:101C900000F0010000287CD0606801283BD12020A2
:101CA000010391FAA1F1B1FA81F108430121B1EBED
:101CB000601F02D1884800681DE02020010391FACE
:101CC000A1F1B1FA81F108430221B1EB601F02D109
:101CD0008148006A0FE02020010391FAA1F1B1FAD6
:101CE00081F108430421B1EB601F02D17A484068BA
:101CF00001E07948406A20210A0392FAA2F2B2FA7E
:101D000082F2114301F01F02012191400840002896
:101D10007CD1012098E7606802283BD12020010592
:101D200091FAA1F1B1FA81F108430121B1EB601FF1
:101D300002D1694800681DE02020010591FAA1F157
:101D4000B1FA81F108430221B1EB601F02D1624870
:101D5000006A0FE02020010591FAA1F1B1FA81F1AA
:101D600008430421B1EB601F02D15B48406801E0E9
:101D70005948406A20210A0592FAA2F2B2FA82F288
:101D8000114301F01F02012191400840E8BB0120EE
:101D90005AE758E02020022191FAA1F1B1FA81F12D
:101DA00008430121B1EB601F02D14B4800681DE0E0
:101DB0002020022191FAA1F1B1FA81F10843022118
:101DC000B1EB601F02D14448006A0FE020200221DD
:101DD00091FAA1F1B1FA81F108430421B1EB601F3E
:101DE00002D13D48406801E03B48406A2021022280
:101DF00092FAA2F2B2FA82F2114301F01F0201211B
:101E00009140084008B901201EE7FFE732484068CA
:101E100020F00300616808432F494860FFF7C4FEC3
:101E2000064608E0FFF7C0FE801B41F28831884279
:101E300001D9032008E72848406800F00C006168D9
:101E4000B0EB810FEED12348006800F00700A842F4
:101E50000ED92048006820F0070028431D4908607B
:101E60000846006800F00700A84201D00120EBE618
:101E7000207800F00400042807D11748406820F4B7
:101E8000E060E168084314494860207800F00800E9
:101E9000082808D11048406820F46050216940EAC1
:101EA000C1000D49486000F023F80B49496801F072
:101EB000F001F02292FAA2F2B2FA82F2D140074A7D
:101EC000515CC840064908600F20FFF793FE0020D0
:101ED000BAE600000020024000100240D47800085A
:101EE000000000200148006870470000000000204A
:101EF00070B5002100240022002300201A4D6968DB
:101F000001F00C0565B3042D02D0082D27D101E0A6
:101F1000164827E001F470154FF4701696FAA6F6ED
:101F2000B6FA86F6F540124E735D0F4DED6A05F078
:101F30000F050F2696FAA6F6B6FA86F6F5400D4E70
:101F4000745D01F480352DB1084DB5FBF4F505FB4A
:101F500003F202E0084D03FB05F2104602E000BF69
:101F6000024800BF00BF70BD0010024000127A009E
:101F7000EC7A0008FC7A000800093D00F8B5044638
:101F80000CB90120F8BD207800F0010000287BD0BA
:101F9000FA48406800F00C0004280CD0F74840686C
:101FA00000F00C00082845D1F448406800F4803067
:101FB000B0F5803F3ED12020010391FAA1F1B1FAA2
:101FC00081F108430121B1EB601F02D1EB480068A9
:101FD0001DE02020010391FAA1F1B1FA81F108433B
:101FE0000221B1EB601F02D1E448006A0FE020201B
:101FF000010391FAA1F1B1FA81F108430421B1EB97
:10200000601F02D1DD48406801E0DC48406A2021C1
:102010000A0392FAA2F2B2FA82F2114301F01F020D
:102020000121914008400028B1D0606800282BD1E0
:102030000120A7E700BF6068B0F5803F06D1CF4818
:10204000006840F48030CD49086029E0606858B9E4
:10205000CA48006820F48030C84908600846006813
:1020600020F4802008601BE06068B0F5A02F0CD140
:10207000C248006840F48020C049086008460068F3
:1020800040F4803008600BE0A1E0BC48006820F418
:102090008030BA4908600846006820F48020086053
:1020A00000BFB648C06A20F00F00A1680843B349DA
:1020B000C8626068A0B3FFF777FD054606E0FFF74A
:1020C00073FD401B642801D903205BE72020010336
:1020D00091FAA1F1B1FA81F108430121B1EB601F3E
:1020E00002D1A64800681EE02020010391FAA1F168
:1020F000B1FA81F108430221B1EB601F02D19F4880
:10210000006A10E02020010391FAA1F1B1FA81F1F7
:1021100008430421B1EB601F03D19848406802E0F6
:1021200010E09648406A20210A0392FAA2F2B2FA1D
:1021300082F2114301F01F02012191400840002862
:10214000BDD044E0FFF730FD054606E0FFF72CFD6B
:10215000401B642801D9032014E72020010391FAD1
:10216000A1F1B1FA81F108430121B1EB601F02D165
:10217000824800681DE02020010391FAA1F1B1FA24
:1021800081F108430221B1EB601F02D17B48006A54
:102190000FE02020010391FAA1F1B1FA81F1084387
:1021A0000421B1EB601F02D17448406801E073481C
:1021B000406A20210A0392FAA2F2B2FA82F2114393
:1021C00001F01F020121914008400028BED1207873
:1021D00000F0020002285CD16848406800F00C0062
:1021E00050B16648406800F00C00082852D163489E
:1021F000406800F48030E8BB2020022191FAA1F170
:10220000B1FA81F108430121B1EB601F02D15B48B3
:1022100000681DE02020022191FAA1F1B1FA81F1BC
:1022200008430221B1EB601F02D15448006A0FE05D
:102230002020022191FAA1F1B1FA81F10843042191
:10224000B1EB601F02D14D48406801E04B48406A45
:102250002021022292FAA2F2B2FA82F2114301F094
:102260001F0201219140084028B12069012802D0B5
:10227000012087E60EE04148006820F0F800F822CF
:1022800092FAA2F2B2FA82F26169914008433B49A4
:102290000860B1E0206970B3012191FAA1F0B0FAB1
:1022A00080F0374A42F82010FFF77EFC054606E032
:1022B000FFF77AFC401B022801D9032062E62020A8
:1022C000022191FAA1F1B1FA81F108430121B1EBA8
:1022D000601F02D1294800681EE02020022191FAE7
:1022E000A1F1B1FA81F108430221B1EB601F03D1E2
:1022F0002248006A10E02CE02020022191FAA1F18E
:10230000B1FA81F108430421B1EB601F02D11B48EF
:10231000406801E01948406A2021022292FAA2F2A4
:10232000B2FA82F2114301F01F02012191400840EC
:102330000028BDD01148006820F0F800F82292FA79
:10234000A2F2B2FA82F26169914008430B49086037
:1023500052E00020012191FAA1F1B1FA81F1084A7D
:1023600042F82100FFF720FC05460BE0FFF71CFCBC
:10237000401B022806D9032004E60000001002409A
:10238000000042422020022191FAA1F1B1FA81F12C
:1023900008430121B1EB601F02D1FB4800681DE03A
:1023A0002020022191FAA1F1B1FA81F10843022122
:1023B000B1EB601F02D1F448006A0FE02020022137
:1023C00091FAA1F1B1FA81F108430421B1EB601F48
:1023D00002D1ED48406801E0EB48406A202102222A
:1023E00092FAA2F2B2FA82F2114301F01F02012125
:1023F000914008400028B9D1207800F00800082852
:1024000051D1A06980B3012090FAA0F1B1FA81F115
:10241000DE4A02EB8101C1F88004FFF7C5FB0546E7
:1024200006E0FFF7C1FB401B022801D90320A9E504
:102430006020022191FAA1F1B1FA81F10843012152
:10244000B1EB601F02D1D04800681EE0602002217D
:1024500091FAA1F1B1FA81F108430221B1EB601FB9
:1024600003D1C948006A10E01EE06020022191FA01
:10247000A1F1B1FA81F108430421B1EB601F02D14F
:10248000C148406801E0C048406A6021022292FAD7
:10249000A2F2B2FA82F2114301F01F02012191402F
:1024A00008400028BDD04FE00020012191FAA1F1A1
:1024B000B1FA81F1B54A02EB8101C1F88004FFF75E
:1024C00073FB054606E0FFF76FFB401B022801D9AE
:1024D000032057E56020022191FAA1F1B1FA81F1C0
:1024E00008430121B1EB601F02D1A74800681DE03D
:1024F0006020022191FAA1F1B1FA81F10843022191
:10250000B1EB601F02D1A048006A0FE060200221F9
:1025100091FAA1F1B1FA81F108430421B1EB601FF6
:1025200002D19948406801E09748406A6021022240
:1025300092FAA2F2B2FA82F2114301F01F020121D3
:10254000914008400028BED1207800F00400042803
:1025500073D100268C48C06900F0805070B900BF6C
:102560008948C06940F080508749C8610846C06901
:1025700000F08050009000BF00BF01268448006832
:1025800000F48070B0B98248006840F480708049DF
:102590000860FFF709FB054606E0FFF705FB401B57
:1025A000642801D90320EDE47948006800F48070C4
:1025B0000028F2D000BFE068012806D17248006A06
:1025C00040F001007049086227E0E06858B96E48A1
:1025D000006A20F001006C4908620846006A20F099
:1025E0000400086219E0E06805280BD16648006A1B
:1025F00040F00400644908620846006A40F00100A7
:1026000008620AE06048006A20F001005E49086242
:102610000846006A20F00400086200BFE068B8B312
:10262000FFF7C2FA054609E0FFF7BEFA401B41F288
:102630008831884202D90320A4E48BE040200221A3
:1026400091FAA1F1B1FA81F108430121B1EB601FC8
:1026500002D14D4800681EE04020022191FAA1F10C
:10266000B1FA81F108430221B1EB601F02D1464863
:10267000006A10E04020022191FAA1F1B1FA81F143
:1026800008430421B1EB601F03D13F48406802E0DA
:1026900010E03D48406A4021022292FAA2F2B2FACA
:1026A00082F2114301F01F020121914008400028ED
:1026B000BAD046E0FFF778FA054608E0FFF774FA6B
:1026C000401B41F28831884201D903205AE440205E
:1026D000022191FAA1F1B1FA81F108430121B1EB94
:1026E000601F02D1284800681DE04020022191FAB5
:1026F000A1F1B1FA81F108430221B1EB601F02D1CF
:102700002148006A0FE04020022191FAA1F1B1FABC
:1027100081F108430421B1EB601F02D11A484068DF
:1027200001E01948406A4021022292FAA2F2B2FA6C
:1027300082F2114301F01F0201219140084000285C
:10274000BCD1012E05D11048C06920F080500E493F
:10275000C86100BFE069002874D00B48406800F0F1
:102760000C0008286FD0E06902286DD100204FF0DE
:10277000807191FAA1F1B1FA81F1044A42F8210085
:10278000FFF712FA05460CE000100240000042423A
:1027900000700040FFF708FA401B022801D903200F
:1027A00047E42020010591FAA1F1B1FA81F1084333
:1027B0000121B1EB601F02D16F4800681DE02020AD
:1027C000010591FAA1F1B1FA81F108430221B1EBBF
:1027D000601F02D16848006A0FE02020010591FACD
:1027E000A1F1B1FA81F108430421B1EB601F02D1DC
:1027F0006148406801E06048406A20210A0592FA79
:10280000A2F2B2FA82F2114301F01F0201219140BB
:1028100008400028BED1D4E9081008435649496849
:1028200021F474110843544948600121080690FAC4
:10283000A0F0B0FA80F0514A42F82010FFF7B4F946
:10284000054609E095E092E041E0FFF7ADF9401B55
:10285000022801D9032038E42020010591FAA1F1D2
:10286000B1FA81F108430121B1EB601F02D1424866
:1028700000681DE02020010591FAA1F1B1FA81F173
:1028800008430221B1EB601F02D13B48006A0FE010
:102890002020010591FAA1F1B1FA81F10843042148
:1028A000B1EB601F02D13448406801E03248406A11
:1028B00020210A0592FAA2F2B2FA82F2114301F043
:1028C0001F020121914008400028BED051E00021A4
:1028D0004FF0807090FAA0F0B0FA80F0274A42F8EA
:1028E0002010FFF761F9054606E0FFF75DF9401B90
:1028F000022801D903202FE42020010591FAA1F13B
:10290000B1FA81F108430121B1EB601F02D11A48ED
:1029100000681DE02020010591FAA1F1B1FA81F1D2
:1029200008430221B1EB601F02D11348006A0FE097
:102930002020010591FAA1F1B1FA81F108430421A7
:10294000B1EB601F02D10C48406801E00A48406AC0
:1029500020210A0592FAA2F2B2FA82F2114301F0A2
:102960001F020121914008400028BED101E0012052
:102970007FE400207DE4000000100240000042429D
:1029800000B587B0142102A8FDF75FFC00BF2948FD
:10299000406940F40020274948610846406900F436
:1029A0000020019000BF00BF00BF0846406940F40E
:1029B000800048610846406900F48000019000BF33
:1029C00000BF00BF0846406940F400304861084637
:1029D000406900F40030019000BF00BF00BF08460E
:1029E000406940F4802048610846406900F4802036
:1029F000019000BF00BF00224FF400510E48FFF7C6
:102A0000CDF84FF4005002900C4803900020049041
:102A100002A90B48FEF7DEFF4FF4005002900120A0
:102A2000039000200490059002A90348FEF7D2FF0E
:102A300007B000BD00100240000400480000211053
:102A40000008004810B5012000F02EF810BD00006D
:102A500070B5002600BF00BFFDF7CAFB064600BFE9
:102A6000FEF7E8FE00BF09480568284600F010F8A8
:102A700004460648046000BFFEF7F6FE00BF30467D
:102A8000FDF7BAFB00BF00BF204670BD200000204C
:102A9000014643F23902034B03FB012222F00040BE
:102AA000704700006D4EC64170B50446002500BF5A
:102AB00000BFFDF79DFB054600BFFEF7BBFE00BF54
:102AC0000548046000BFFEF7CFFE00BF2846FDF7B3
:102AD00093FB00BF00BF70BD2000002030B505464D
:102AE0000C4622460021284600F060F830BD000068
:102AF0003EB500200B4908600B4C02A801218B0257
:102B00002246CDE90010094909A000F015F8BDF8EA
:102B1000080042F21071884203D000BFFEF724FF84
:102B200000BF3EBD24000020EC220020EC26002047
:102B300048656170000000002DE9F84F05460E461B
:102B400017461C46DDE90A894FF0000A00BF00BFA6
:102B5000FDF74EFB824600BFFEF76CFE00BF43460A
:102B60003A4631462846009400F010F800BFFEF7C0
:102B70007BFE00BF5046FDF73FFB00BF00BF42F2A7
:102B80001070A9F80000BDE8F88F000030B5039C74
:102B90000A60651E15444D608A60034D2D68CD6046
:102BA0000B61014D296030BD240000202DE9F0416A
:102BB00005460B4694460027002402E03F021F43CF
:102BC000641C042CFAD3604605F00306294646B17E
:102BD000344603E001F8013B401E641C08B1042C9C
:102BE000F8D30A4601E080C2001F0428FBD2114638
:102BF00002E001F8013B401E0028FAD1BDE8F08157
:102C0000704700002DE9F04104460D4616461F4668
:102C10004FF0000800BF00BFFDF7EAFA804600BF92
:102C2000FEF708FE00BF0F482060656026620020A6
:102C3000606204F1080002F0D8FA204601F07EFF3D
:102C400009480088401C0849088000BFFEF70CFEB8
:102C500000BF4046FDF7D0FA00BF00BF002038801B
:102C6000BDE8F081464C41475C0000202DE9FF4F54
:102C70008BB0064688469946DDE91854002002903C
:102C8000B9493068884206D045F6C45020800020FB
:102C90000FB0BDE8F08F09F4807010B14FF0010A59
:102CA00001E04FF0000A0DB10020286009F00F0B81
:102CB00000BF00BFFDF79CFA029000BFFEF7BAFD0F
:102CC00000BFBBF1040F03D0BBF1080F72D153E07A
:102CD000306A00EA0807474519D1BAF1010F02D15D
:102CE000306AB8433062A1480068C0F880700DB106
:102CF000706A286000BFFEF7B7FD00BF0298FDF7BD
:102D00007BFA00BF00BF002020803846C0E709F4EE
:102D1000004068B100BFFEF7A7FD00BF0298FDF7B5
:102D20006BFA00BF00BF46F2B01020800020AFE772
:102D30008F48007800280DDD00BFFEF795FD00BF2D
:102D40000298FDF759FA00BF00BF46F66350208095
:102D500000209DE70D984B4642463146009003A85F
:102D600001F0CEFE00BFFEF77FFD00BF0298FDF729
:102D700043FA00BF00BF61E0306A00EA0807D7B13C
:102D8000BAF1010F02D1306AB84330627748006867
:102D9000C0F880700DB1706A286000BFFEF764FD56
:102DA00000BF0298FDF728FA00BF00BF0020208076
:102DB00038466DE734E009F4004068B100BFFEF723
:102DC00053FD00BF0298FDF717FA00BF00BF46F29F
:102DD000B010208000205BE76548007800280DDDFA
:102DE00000BFFEF741FD00BF0298FDF705FA00BFE6
:102DF00000BF46F663502080002049E70D984B46FF
:102E000042463146009003A801F07AFE00BFFEF76B
:102E10002BFD00BF0298FDF7EFF900BF00BF0DE0EA
:102E200000BFFEF721FD00BF0298FDF7E5F900BFE6
:102E300000BF45F625602080002029E700BF00F094
:102E400011FD00BF00BFFDF7D3F9029000BFFEF7F0
:102E5000F1FC00BF4548006890F8350030B101280A
:102E60000CD002282CD003283CD119E01DB13F48DA
:102E70000068806C28600020208040E01DB13B4845
:102E80000068806C286000BFFEF7EEFC00BF02986F
:102E9000FDF7B2F900BF00BF46F2A91020802EE076
:102EA0000DB10020286000BFFEF7DEFC00BF0298D5
:102EB000FDF7A2F900BF00BF47F2D92020801EE035
:102EC0001DB12A480068806C286000BFFEF7CCFC6A
:102ED00000BF0298FDF790F900BF00BF45F6C25051
:102EE00020800CE000BFFEF7BFFC00BF0298FDF79A
:102EF00083F900BF00BF46F62E60208000BF00BFF0
:102F0000208808B10020C3E618480068D0F8807017
:102F1000BAF1010F1AD1BBF1040F03D0BBF1080FB6
:102F200005D100E000BF306AB84330620DE000BF59
:102F3000FEF79AFC00BF0298FDF75EF900BF00BFE4
:102F400045F6256020800020A2E600BF00BFFEF706
:102F50008BFC00BF0298FDF74FF900BF00BF0020B7
:102F60002080384694E60000464C4147E0000020AF
:102F70007A0000202DE9F84305460F4690461C468E
:102F80000B492868884205D045F6C45020800020AF
:102F9000BDE8F883FEF714FD81464B4642463946AC
:102FA0002846009401F0EEFD06463046F0E70000AA
:102FB000464C414710B50348006810B1014800680D
:102FC000804710BD3800002070B5044600F0A2F81C
:102FD00000203E4908703E4908703E4908703E494D
:102FE00008603E4908603E4908703E4908703E4905
:102FF00008703E48006858B13D48056845B13B48F7
:10300000066803E0761E002028602D1D002EF9D1F1
:103010000020384908603849086038490860384954
:1030200008603849086038490860384908603849FC
:10303000087002F0E3F902F09BFA204601F096FDD9
:10304000208800B170BD204601F0E6FE208800B166
:10305000F8E7204601F0ECFE208800B1F2E72046B8
:1030600002F012F8208800B1ECE7204602F00EFAD8
:10307000208800B1E6E7204602F026FB208800B158
:10308000E0E7204602F068FE208800B1DAE720463B
:1030900001F08AFE208800B1D4E7204603F0E4FA6C
:1030A000208800B1CEE7204602F04CFD208800B118
:1030B000C8E7204603F03CFB208800B1C2E701F0DE
:1030C0004BFCFFF79DFD00BFBCE700004C0000205B
:1030D000540000207A000020E0000020E4000020DE
:1030E0006E0000206F000020700000201C79000896
:1030F000187900082C000020300000203400002047
:10310000380000203C000020400000204400002047
:10311000A6000020064800680649096800EB810007
:10312000054908600846006820F0070008607047FD
:10313000187900081C790008E80000200848007889
:10314000012800D0704707480078FA2800DBF9E72B
:1031500004480078401C0349087000BFF2E70000F3
:10316000540000204C00002010B500242D480078A9
:10317000012800D010BD00BFFDF73AF8044600BF9B
:103180002948007828B900BF2046FDF735F800BF70
:10319000F0E725480078401E23490870084600786B
:1031A000002805DD00BF2046FDF726F800BFE1E757
:1031B0001E480078002805DD00BF2046FDF71CF8FA
:1031C00000BFD7E702F006F91949087008460078F1
:1031D00000EB4000174951F82000174908600846E5
:1031E000006816490968884205D100BF2046FDF7EE
:1031F00003F800BFBEE710480068D0F88C00401C00
:103200000D490968C1F88C000D480068401C0C4944
:103210000860FDF76CFB00BF2046FCF7EDFF00BF28
:1032200000BFA7E7540000204C0000207A000020D7
:103230006F0000202C370020E4000020E000002078
:103240009C0000202DE9F04104460D46164600275B
:1032500000BF00BFFCF7CCFF074600BFFEF7EAFA4D
:1032600000BF11482060656000202062606284F821
:103270002800E06204F1080001F0B7FF204601F0E9
:10328000C3FE0A480088401C0849088000BFFEF7BA
:10329000EBFA00BF3846FCF7AFFF00BF00BF0020CD
:1032A0003080BDE8F08100004D5554586C0000207E
:1032B0002DE9F04788B00546884691461C46109E89
:1032C0004FF0000A72492868884205D045F6C4507C
:1032D000308008B0BDE8F0870CB10020206000BF4E
:1032E00000BFFCF785FF824600BFFEF7A3FA00BFD0
:1032F00095F82800C8B9674800686862012085F819
:1033000028000CB1E86A206029466248006801F094
:1033100093FE00BFFEF7A8FA00BF5046FCF76CFF13
:1033200000BF00BF00203080D3E75A49686A0968AF
:10333000884225D195F82800FF280CD100BFFEF760
:1033400093FA00BF5046FCF757FF00BF00BF45F29D
:1033500084703080BDE795F82800401C85F828006F
:103360000CB1E86A206000BFFEF77EFA00BF50464D
:10337000FCF742FF00BF00BF45F282703080A8E733
:1033800009F4004060B100BFFEF76EFA00BF50467E
:10339000FCF732FF00BF00BF46F2B010308098E764
:1033A0003D48007800280CDD00BFFEF75DFA00BF45
:1033B0005046FCF721FF00BF00BF46F66350308047
:1033C00087E76F6A97F837003249096891F8371034
:1033D000884206DD2F48006890F83710384602F022
:1033E0002DFC434604222946684601F059FE00BFE1
:1033F000FEF73AFA00BF5046FCF7FEFE00BF00BFE2
:1034000000F030FA00BF00BFFCF7F2FE824600BFBA
:10341000FEF710FA00BF1F48006890F8350030B181
:1034200001280CD002281AD0032821D110E01CB1A9
:1034300018480068806C2060002030801CE01CB1BF
:1034400014480068806C206046F2A910308013E0B8
:103450000CB10020206047F2D92030800CE01CB174
:103460000C480068806C206045F6C250308003E054
:1034700046F62E60308000BF00BF00BFFEF7F4F9B3
:1034800000BF5046FCF7B8FE00BF00BF00BF20E7FA
:103490004D555458E00000207A0000202DE9F84FE7
:1034A00004468A4615464FF0000B5849206888426A
:1034B00004D045F6C4502880BDE8F88F00BF00BF97
:1034C000FCF796FE834600BFFEF7B4F900BF5049F3
:1034D000606A096888420CD000BFFEF7C5F900BFDA
:1034E0005846FCF789FE00BF00BF45F28170288076
:1034F000E2E7FEF765FA80462834C4F804802078B5
:10350000401E207014F8280900280CDD00BFFEF7CB
:10351000ABF900BF5846FCF76FFE00BF00BF45F295
:1035200083702880C8E721463948006801F09EFD75
:1035300004F10809B9F8080078B90020606284F83D
:10354000280000BFFEF790F900BF5846FCF754FE74
:1035500000BF00BF00202880AEE72D48006890F82B
:1035600037002B49096891F83810884228D028483C
:10357000006801F065FD06462548006890F838109F
:10358000B14204DA2248006890F8380000E0304682
:1035900006461F48006890F83700B04210DA1C4811
:1035A000006802F04BF81A48006880F8376030462F
:1035B00001F030FF1648006802F022F81548067046
:1035C000D9F8000087686762012084F82800214646
:1035D000384601F031FD00231A4639462046CDF821
:1035E000008001F075FE00BFFEF73EF900BF5846AF
:1035F000FCF702FE00BF00BF0AF4004008B900F06B
:1036000031F90020288000BF56E700004D5554587E
:10361000E00000206E0000202DE9F04104460D4638
:1036200016461F464FF0000800BF00BFFCF7E0FD44
:10363000804600BFFEF7FEF800BF104820606560BE
:10364000314604F1200001F055FC04F1080001F0BE
:10365000CCFD204601F002FF09480088401C0849C3
:10366000088000BFFEF700F900BF4046FCF7C4FD2C
:1036700000BF00BF00203880BDE8F081515545559E
:10368000780000202DE9F04F89B007468846914622
:103690001E46DDE912454FF0000B5F49386888424D
:1036A00006D045F6C4502880002009B0BDE8F08F50
:1036B0000CB10020206000BF00BFFCF799FD8346DD
:1036C00000BFFEF7B7F800BF2B462246314607F190
:1036D000200001F0DBFB8246288850B900BFFEF7CE
:1036E000C3F800BF5846FCF787FD00BF00BF504637
:1036F000DBE709F4004068B100BFFEF7B5F800BF92
:103700005846FCF779FD00BF00BF46F2B010288094
:103710000020CAE74148007800280DDD00BFFEF711
:10372000A3F800BF5846FCF767FD00BF00BF46F690
:10373000635028800020B8E743460522394601A897
:1037400001F0AEFC00BFFEF78FF800BF5846FCF753
:1037500053FD00BF00BF00F085F800BF00BFFCF7BD
:1037600047FD834600BFFEF765F800BF2C480068A0
:1037700090F8350030B1012815D002282AD003284E
:1037800035D11DE026480068D0F858A024480068CC
:10379000B0F85C0030801CB121480068806C20606B
:1037A000002028802BE04FF0000A002030801CB160
:1037B0001B480068806C206046F2A91028801EE03B
:1037C0004FF0000A0020308004B1206047F2D92079
:1037D000288014E04FF0000A002030801CB110480F
:1037E0000068806C206045F6C250288007E04FF0EA
:1037F000000A0020308046F62E60288000BF00BFFF
:1038000000BFFEF731F800BF5846FCF7F5FC00BFDB
:1038100000BF504649E70000515545557A00002049
:10382000E00000202DE9FC4704460F4690469946EB
:103830000A9D0B492068884204D045F6C450288070
:10384000BDE8FC87FEF7BCF806464B4642463946C3
:103850002046CDE9006501F025FE00BFF0E700003D
:103860005155455510B5002420480078002800DD4A
:1038700010BD1F480078002800DDF9E700BFFCF705
:10388000B7FC044600BF01F0A5FD1A4908700846C0
:10389000007800EB4000184951F8200017490860F3
:1038A0000846006816490968884205D100BF2046CD
:1038B000FCF7A2FC00BFDBE710480068D0F88C00E2
:1038C000401C0E490968C1F88C000E480068401C75
:1038D0000C490860FDF706F800BF2046FCF78CFC99
:1038E00000BFBFF36F8F00BFC2E700004C00002095
:1038F0007A0000206F0000202C370020E400002018
:10390000E00000209C00002070B50446002515480A
:103910000078012803D045F68960208070BD1248E8
:103920000078FA2803DB45F209202080F6E700BF83
:1039300000BFFCF75DFC054600BFFDF77BFF00BF45
:1039400009480078401C0849087000BFFDF78CFF4B
:1039500000BF2846FCF750FC00BF00BF00202080BD
:1039600000BFDBE7540000207A00002070B5044659
:1039700000251E480078012803D045F68960208084
:1039800070BD1B48007818B946F664502080F7E7F0
:1039900000BF00BFFCF72CFC054600BFFDF74AFF47
:1039A00000BF13480078401E11490870084600788F
:1039B00000280CDD00BFFDF757FF00BF2846FCF7CD
:1039C0001BFC00BF00BF46F663502080D8E700BF55
:1039D000FDF74AFF00BF2846FCF70EFC00BF00BF02
:1039E000FFF740FF0020208000BFC9E754000020FF
:1039F0007A0000202DE9F04104460D4616461F4688
:103A00004FF0000800BF00BFFCF7F2FB804600BF8C
:103A1000FDF710FF00BF0F482060266200206062A3
:103A2000656004F1080001F0E0FB204601F034FE7F
:103A300009480088401C0849088000BFFDF714FFB2
:103A400000BF4046FCF7D8FB00BF00BF0020388015
:103A5000BDE8F08153454D41800000202DE9F0473D
:103A600088B00546884691461C46109E4FF0000AD5
:103A700059492868884206D045F6C4503080002055
:103A800008B0BDE8F0870CB10020206000BF00BF87
:103A9000FCF7AEFB824600BFFDF7CCFE00BF286AF4
:103AA00098B1286A401E28620CB1686A20602F6AAB
:103AB00000BFFDF7D9FE00BF5046FCF79DFB00BFDD
:103AC00000BF002030803846DAE709F4004070B1CA
:103AD0002F6A00BFFDF7C8FE00BF5046FCF78CFB05
:103AE00000BF00BF46F2B01030803846C8E73B4800
:103AF000007800280DDD00BFFDF7B6FE00BF504680
:103B0000FCF77AFB00BF00BF46F663503080002010
:103B1000B6E7434606222946684601F0C1FA00BFCF
:103B2000FDF7A2FE00BF5046FCF766FB00BF00BFDA
:103B3000FFF798FE00BF00BFFCF75AFB824600BFAC
:103B4000FDF778FE00BF2648006890F8350030B1D8
:103B500001280CD002281AD0032821D110E01CB172
:103B60001F480068806C20600020308026E01CB177
:103B70001B480068806C206046F2A91030801DE070
:103B80000CB10020206047F2D920308016E01CB133
:103B900013480068806C206045F6C25030800DE00C
:103BA00046F62E60308000BFFDF75EFE00BF504637
:103BB000FCF722FB00BF00BF002061E700BF2F6AB7
:103BC00000BFFDF751FE00BF5046FCF715FB00BFDC
:103BD00000BF384654E7000053454D417A000020AD
:103BE000E00000202DE9F04105460E4614460B4941
:103BF0002868884205D045F6C45020800020BDE8E2
:103C0000F081FDF7DDFE80462346424631462846D8
:103C100001F066FD07463846F1E7000053454D4187
:103C200010B5044612480078E8B901F0D3FB1149F9
:103C3000087008460078104908700E48007800EBBC
:103C400040000E4951F820000D4908600846006800
:103C50000C490860012006490870FCF705FE43F690
:103C60009920208002E045F68A60208010BD000087
:103C7000540000206F0000206E0000202C37002030
:103C8000E4000020E00000202DE9F04107464FF05D
:103C9000000800BF00BFFCF7ABFA804600BFFDF78D
:103CA000C9FD00BF002042490880424908604249DE
:103CB000086042490860424908604249088100BFE3
:103CC000FDF7D2FD00BF4046FCF796FA00BF00BFEB
:103CD00000BF00BFFCF78CFA804600BFFDF7AAFDCD
:103CE00000BF3948046800BFFDF7BEFD00BF404675
:103CF000FCF782FA00BF00BF25E000BF00BFFCF761
:103D000077FA804600BFFDF795FD00BF00207434B0
:103D1000E06320602063A061A082E0826062A06214
:103D2000FDF74EFE2062743C04F160060020B08175
:103D3000D4F8B84000BFFDF797FD00BF4046FCF740
:103D40005BFA00BF00BF002CD7D100BF00BFFCF75B
:103D50004FFA804600BFFDF76DFD00BF1B480568A8
:103D600000BFFDF781FD00BF4046FCF745FA00BFEC
:103D700000BF16E000BF00BFFCF73AFA804600BF64
:103D8000FDF758FD00BF05F120060020B081AD69A8
:103D900000BFFDF769FD00BF4046FCF72DFA00BFEC
:103DA00000BF002DE6D100203880BDE8F081000082
:103DB0008600002098000020AC000020D0000020E9
:103DC0005000002020370020A000002074000020B8
:103DD000F8B5044600266946364800F00FFCBDF8E9
:103DE000000018B1BDF800002080F8BD6A4600212F
:103DF000022000F06BFCBDF8000018B1BDF8000017
:103E00002080F2E700BF00BFFCF7F2F9064600BFD2
:103E1000FDF710FD00BF00202749086000BFFDF737
:103E200023FD00BF3046FCF7E7F900BF00BF0025C7
:103E30002248006822490968884205D91F4800685D
:103E40001F490968B0FBF1F525B91C4800680A2133
:103E5000B0FBF1F56A460021284600F037FC6946C0
:103E6000144800F0EDF8BDF8000018B1BDF80000EE
:103E70002080BAE700BF00BFFCF7BAF9064600BFD2
:103E8000FDF7D8FC00BF00200E4908600A48006812
:103E90000D49086001200D49087000BFFDF7E4FCE2
:103EA00000BF3046FCF7A8F900BF00BF002020800B
:103EB00000BF9AE75C3A0020880000204C79000897
:103EC00034790008980000208C0000209400002025
:103ED00010B50348006810B101480068804710BD64
:103EE0003C0000202DE9FF4F85B004469146DDF8E7
:103EF00054B0DDE912A5199E00200290BAF11F0FFF
:103F000009D14648844206D046F273211A980180AE
:103F100009B0BDE8F08F204601F02EFF00211A986D
:103F2000018006F0010088B106F0020070B1A846D9
:103F30000020049007E00020C8F8000008F1040801
:103F40000498401C049004985845F4D3149805EB49
:103F500080000390CDE900B62A464846039B0899A5
:103F600000F0EAF98046C4F828900898E0620698C4
:103F7000206284F837A084F838A0C4F80080039841
:103F8000A060189860606562C4F840B0A4F844600E
:103F9000002706E0002104F1780040F82710781C83
:103FA000C7B2002FF6D004F16000169900F0A2FF0E
:103FB000204600F039F800BF00BFFCF719F9029065
:103FC00000BFFDF737FC00BF94F8370001F022FA7C
:103FD000204601F015FB204601F0A6FE104800889F
:103FE000401C0F4908800F480078012809D000BF05
:103FF000FDF73AFC00BF0298FCF7FEF800BF00BFD7
:1040000086E700BFFDF730FC00BF0298FCF7F4F82C
:1040100000BF00BFFFF726FC00BF79E76036002035
:10402000A40000205400002010B504460348006896
:1040300018B1204601490968884710BD2C000020AE
:1040400070B504460D46002600BF00BFFCF7D0F84F
:10405000064600BFFDF7EEFB00BF00BFFDF704FC06
:1040600000BF3046FCF7C8F800BF00BF2946204615
:1040700001F0E4FE70BD000010B50446034800687E
:1040800018B1204601490968884710BD3400002056
:104090002DE9F0470746884614461D464FF00009B3
:1040A0000CB10020206000BF00BFFCF7A1F88146E2
:1040B00000BFFDF7BFFB00BF65480068C06CC0B320
:1040C00063480068C06C401E61490968C864604864
:1040D0000068C66C1CB15E480068806C2060FDF70B
:1040E0006FFC5B490968896C401A59490968C1F835
:1040F000A00057480068D0F8A40055490968D1F8D5
:10410000A010884207D252480068D0F8A000504959
:104110000968C1F8A40000BFFDF7A6FB00BF484630
:10412000FCF76AF800BF00BF002028803046BDE8D9
:10413000F087FFE708F4004068B100BFFDF794FB8B
:1041400000BF4846FCF758F800BF00BF46F2B01069
:1041500028800020EBE73F48007800280DDD00BFF5
:10416000FDF782FB00BF4846FCF746F800BF00BFE2
:1041700046F6635028800020D9E73B4607220021FD
:10418000084600F08DFF00BFFDF76EFB00BF4846FC
:10419000FCF732F800BF00BFFFF764FB00BF00BFB1
:1041A000FCF726F8814600BFFDF744FB00BF284816
:1041B000006890F8350020B1012826D0032834D1BA
:1041C0002CE0FCB122480068806C2060FDF7F8FB11
:1041D0001F490968896C401A1D490968C1F8A00087
:1041E0001B480068D0F8A40019490968D1F8A0104C
:1041F000884207D216480068D0F8A0001449096820
:10420000C1F8A4000020288013E01CB11048006809
:10421000806C206046F2A91028800AE00CB10020D2
:10422000206047F2D920288003E046F62E602880DF
:1042300000BF00BF06480068C66C00BFFDF714FB56
:1042400000BF4846FBF7D8FF00BF00BF30466EE70F
:10425000E00000207A0000202DE9F04105460E46DE
:104260001446FDF7ADFB80462346424631462846BC
:1042700001F084FE07463846BDE8F0812DE9F0479D
:1042800004460D4616461F464FF0000A00BF00BF09
:10429000FBF7AEFF824600BFFDF7CCFA00BF0CB9BA
:1042A00024480468206880B900BFFDF7DDFA00BF2C
:1042B0005046FBF7A1FF00BF00BF00202860306020
:1042C00047F252103880BDE8F08794F8440000F0BF
:1042D000010078B900BFFDF7C7FA00BF5046FBF7F1
:1042E0008BFF00BF00BF00202860306047F25410F1
:1042F0003880E8E700BFFDF7B7FA00BF5046FBF78C
:104300007BFF00BF00BF4FF00008D4F8249003E00B
:1043100009F1040908F10108D9F800000028F7D0D4
:10432000C5F80080206CA0EB0800306000203880C9
:1043300000BFC8E7E0000020F0B50446DDE90556FF
:1043400002EB850020F007004FF0807C071F384605
:10435000C7F800C0071F38463C60DFF834C2071FAB
:104360003846C7F800C04FF0123C071F3846C7F860
:1043700000C04FF0033C071F3846C7F800C04FF09D
:10438000023C071F3846C7F800C0071F38463B608D
:10439000071F384639604FF0113C071F3846C7F8F1
:1043A00000C04FF0103C071F3846C7F800C04FF060
:1043B000093C071F3846C7F800C04FF0083C071FEC
:1043C0003846C7F800C04FF0073C071F3846C7F80B
:1043D00000C04FF0063C071F3846C7F800C04FF03A
:1043E000053C071F3846C7F800C04FF0043C071FC4
:1043F0003846C7F800C006F00407002F7ED04FF003
:10440000007C071F3846C7F800C0DFF888C1071FC7
:104410003846C7F800C0DFF880C1071F3846C7F824
:1044200000C0DFF878C1071F3846C7F800C0DFF8C2
:1044300070C1071F3846C7F800C0DFF868C1071F02
:104440003846C7F800C0DFF860C1071F3846C7F814
:1044500000C0DFF858C1071F3846C7F800C0DFF8B2
:1044600050C1071F3846C7F800C0DFF848C1071F12
:104470003846C7F800C0DFF840C1071F3846C7F804
:1044800000C0DFF838C1071F3846C7F800C0DFF8A2
:1044900030C1071F3846C7F800C0DFF828C1071F22
:1044A0003846C7F800C0DFF820C1071F3846C7F8F4
:1044B00000C0DFF818C1071F3846C7F800C04FF02A
:1044C000834C071F3846C7F800C0DFF804C1071F38
:1044D0003846C7F800C0DFF8FCC0071F3846C7F8E9
:1044E00000C0DFF8F4C0071F3846C7F800C0DFF887
:1044F000ECC0071F3846C7F800C000E047E0DFF80F
:10450000E0C0071F3846C7F800C0DFF8D8C0071F53
:104510003846C7F800C0DFF8D0C0071F3846C7F8D4
:1045200000C04FF0824C071F3846C7F800C0DFF8C4
:10453000BCC0071F3846C7F800C0DFF8B4C0071F6B
:104540003846C7F800C0DFF8ACC0071F3846C7F8C8
:1045500000C04FF0814C071F3846C7F800C0DFF895
:1045600098C0071F3846C7F800C04FF0804C071F9F
:104570003846C7F800C04FF07E5C071F3846C7F8C2
:1045800000C04FF0000C071F3846C7F800C0F0BD50
:10459000595F00080000F8410000F0410000E841C8
:1045A0000000E0410000D8410000D0410000C841B7
:1045B0000000C0410000B8410000B0410000A84127
:1045C0000000A04100009841000090410000884197
:1045D0000000704100006041000050410000404177
:1045E0000000304100002041000010410000E04088
:1045F0000000C0400000A0400000404070B50546EB
:104600000C460648854203D147F25B10208070BDFE
:104610002146284601F0AAFD00BFF8E760360020D9
:1046200070B52748006890F8440000F0040020B1FD
:10463000234909680868FCF701F92248006890F8E6
:10464000440000F0040020B11E4909680868FCF726
:1046500002F91D48006810B11B4800688047FDF74B
:10466000AFF904461648006816490968884215D013
:1046700013480068D0F89400201A11490968C1F85D
:1046800090000F480068D0F898000D490968D1F8EB
:10469000901008440A490968C1F898000948006860
:1046A000C0F89440FDF79AF8054605480068D0F830
:1046B000B000A84203D202480068C0F8B05070BDF4
:1046C000E0000020E4000020400000202DE9F0413F
:1046D00005460E461446002726480078002804DDCB
:1046E00046F663502080BDE8F08136B1022E05D039
:1046F000042E0AD0082E09D101E000BF00BF1DB969
:1047000047F27E202080EEE704E003E045F62560D6
:104710002080E8E700BF00BF00BFFBF769FD074648
:1047200000BFFDF787F800BF2346324629461248EE
:10473000006801F0FBFD208848B100BFFDF794F848
:1047400000BF3846FBF758FD00BF00BFCBE70A4863
:10475000006800F073FF00BFFDF786F800BF384621
:10476000FBF74AFD00BF00BFFFF77CF80020208068
:1047700000BFB8E77A000020E00000202DE9F84FE4
:1047800006460F46904699460B9C002000903D48F7
:104790000078002804DD46F663502080BDE8F88FDD
:1047A0000A9800F00E0ABAF1000F09D0BAF1020F10
:1047B00007D0BAF1040F12D0BAF1080F10D101E0FE
:1047C00000BF00BFB9F1000F08D1B8F1000F05D14B
:1047D00027B91EB947F27E202080DFE704E003E01E
:1047E00045F625602080D9E700BF274805684FF4CB
:1047F000FA70B0FBF5F0484468434FF47A71B0FBAF
:10480000F1F14FF461607043C7EB071200EB8200D7
:10481000404400FB051BBBF1000F2DD000BF00BFC3
:10482000FBF7E6FC009000BFFDF704F800BF23464D
:10483000524659461548006801F078FD208848B175
:1048400000BFFDF711F800BF0098FBF7D5FC00BFD3
:1048500000BFA3E70D48006800F0F0FE00BFFDF7C1
:1048600003F800BF0098FBF7C7FC00BF00BFFEF7CE
:10487000F9FF0020208002E047F27E20208000BF68
:104880008CE700007A0000204C790008E00000204E
:1048900008B500F01FF86A4600210A48FFF7DCFC63
:1048A00009480068401E084908600846006838B991
:1048B0000648006808606A4600210548FFF7CCFCFE
:1048C00008BD00006C390020DC000020D80000206A
:1048D0005C3A002010B50348006810B10148006838
:1048E000804710BD4400002010B5002400BF00BF69
:1048F000FBF77EFC044600BFFCF79CFF00BF0948A5
:104900000078401C0749087000BFFCF7ADFF00BFEE
:104910002046FBF771FC00BF00BFFFF7B9FFFEF7B1
:1049200023FC10BD4C00002001464A1E4FF0E0233E
:104930005A61084A106820F07F4000BF10601A4694
:10494000126942F005021A611A46126942F0020227
:104950001A61704720ED00E0244A2549254A264A7D
:104960002649274A2748284A284A294A294A2A48BC
:104970002A482B4A2B482C4A2C482D4A2D482E4891
:104980002E482F482F4A304A304A3148314A324A5D
:104990003248334833483448344835483548364A35
:1049A000364A374A374A384838483948394A3A4AFD
:1049B0003A4A3B483B483C483C493D483D4A3E4AD0
:1049C0003E4A3F4A3F4A404A404A4148414A424A99
:1049D00042484348434A444A4448454A454A46486F
:1049E000464800BF00BF00BF704700008079000844
:1049F000E87A000881790008827900088479000843
:104A0000887900088C79000889790008B479000851
:104A1000B5790008B6790008B8790008BA790008B5
:104A2000BE790008C0790008E0790008E279000842
:104A3000E4790008E6790008E8790008EA790008D6
:104A4000EC7900081C7A00081D7A00081E7A00081C
:104A5000207A0008227A0008237A0008247A0008C5
:104A6000267A0008287A00082A7A00082C7A00089A
:104A70002E7A0008307A0008607A0008617A00080F
:104A8000627A0008637A0008647A0008667A00088F
:104A9000687A0008907A0008917A0008927A0008F3
:104AA000937A0008947A0008967A0008987A0008A9
:104AB0009C7A00089D7A00089E7A00089F7A000878
:104AC000A07A0008A17A0008A27A0008A37A000858
:104AD000A47A0008A67A0008A77A0008A87A000835
:104AE000AA7A0008AC7A0008AD7A0008B07A00080B
:104AF000E07A0008E17A0008E27A0008E47A000827
:104B00002DE9F04106460F4614461D46DDF8188093
:104B100009480068C46708480068A0F8845000206D
:104B200005490968C1F880004346012239463046EC
:104B300000F0B6FABDE8F081E000002009A1C161F3
:104B4000002141610849096811B90021816105E02E
:104B5000054909688161044909684861024908609A
:104B60007047000020000000580000200021034A88
:104B70001160034A11800180704700005800002036
:104B80005C0000202DE9F04F85B004468846914630
:104B90009A460E9F0020009000BF00BFFBF728FB45
:104BA000009000BFFCF746FE00BFB9F1000F0AD02D
:104BB000B9F1010F0DD0B9F5004F05D06FF40040E9
:104BC000484460B906E000BF206A40EA080020625D
:104BD00015E000BF206A20EA080020620FE000BF55
:104BE000FCF742FE00BF0098FBF706FB00BF00BFCA
:104BF00045F625603880002005B0BDE8F08F00BF85
:104C0000C4F824A004F1080001900198008960B95B
:104C100000BFFCF729FE00BF0098FBF7EDFA00BFCC
:104C200000BF00203880206AE6E701980668B56872
:104C30003AE07068029095F8840000F00F0003904D
:104C40000398042802D008281AD10CE0206AE96FE2
:104C500000EA010BE86F584504D1524659462846F0
:104C600000F04AF81AE0206AE96F00EA010BBBF194
:104C7000000F04D052465946284600F03DF80DE09A
:104C800000BFFCF7F1FD00BF0098FBF7B5FA00BFCD
:104C900000BF43F6FF2038800020ADE700BF029E32
:104CA0000EB1B56800E00025002DC2D100BFFCF7B1
:104CB000DBFD00BF0098FBF79FFA00BF00BF09F4BF
:104CC000004008B9FEF7CEFD00BF00BFFBF790FA29
:104CD000009000BFFCF7AEFD00BF206A049000BF4B
:104CE000FCF7C2FD00BF0098FBF786FA00BF00BFCB
:104CF0000020388004987FE770B504460E461546BC
:104D00003434E6640020607020706561A078343C23
:104D100008281DD2DFE800F0040508090706171867
:104D200000BF00BF00BF14E000BF94F836000328A6
:104D300002D1204601F058FB204600F02BFC002059
:104D400084F8360005E000BF042084F8360000E057
:104D500000BF00BF204600F080FA70BD00241DE0B7
:104D600000BF00BFFBF744FA044600BFFCF762FD3A
:104D700000BF0B480068401C0949086009480068EA
:104D8000401C0849086000BFFCF76EFD00BF2046CC
:104D9000FBF732FA00BF00BFFEF70CF9E0E70000B6
:104DA000480000208800002010B58AB0044600208A
:104DB0000E4908600B2000210591CDE907040691FA
:104DC00008460B4909680B4A12680B4B1B68CDE972
:104DD0000132CDE903101F200023084A08A10090EA
:104DE0000C48FFF77FF80AB010BD00004800002013
:104DF000F4780008F0780008EC7800085D4D0008B1
:104E000075432F4F532D4949492049646C652054FF
:104E100061736B00603600200021034A1160034A71
:104E200011800180704700006000002064000020B5
:104E300070B50246124D286829681031114D2D8831
:104E40006D1EACB2002308E00160002545600581BD
:104E5000C560103010315D1CABB2A342F4DB0025FD
:104E6000056045600581C560054D2D68064E3560BD
:104E7000044D2D88B5800025F5803581158070BDE5
:104E80002C7900082479000820370020F0B504466A
:104E90000D46608940B90020288002B1106046F2BA
:104EA000925018800020F0BD61684E680889288003
:104EB0000AB1C868106008686060606818B90020AE
:104EC0002060608102E06089401E608108480068BF
:104ED0000860074801608088401C054FB88038464C
:104EE000C088401EF880002018803046DBE70000B4
:104EF00020370020018100224281828102604260CD
:104F0000704700002DE9F0410D46DDE90674B0F868
:104F10000AC0B0F80880C44505DB46F2935CA4F8EB
:104F200000C0BDE8F081DFF8DCC0BCF804C0BCF113
:104F3000000F04D145F21D7CA4F800C0F1E7DFF8B2
:104F4000C4C0DCF80010DFF8BC80D1F800C0C8F89D
:104F500000C0C446BCF804C0ACF1010CA8F804C001
:104F6000C446BCF806C00CF1010CA8F806C0C44643
:104F7000BCF808C0B8F80680C44507DADFF884C07A
:104F8000BCF806C0DFF87C80A8F808C0B0F80AC0FA
:104F9000BCF1000F0AD1016041604FF0010CA0F894
:104FA0000AC04FF0000CC1F800C017E003F0100C6D
:104FB000BCF1000F07D10668316001604FF0000CB2
:104FC000C1F800C004E0D0F804C0C1F800C04160DE
:104FD000B0F80AC00CF1010CA0F80AC0B0F80CC07F
:104FE000B0F80A80C44503DAB0F80AC0A0F80CC0D3
:104FF0004D600A81CF604FF0000CA4F800C000BFE4
:105000008FE700002037002009A1C1610021416124
:105010000849096811B90021816105E0054909685D
:1050200081610449096848610249086070470000CD
:105030002000000068000020C26B0A62C163704754
:1050400030B504461F2004F13C010BE00D68AB684D
:105050002BB19D6895F83720824200DA10460D6822
:1050600005F120010D68002DF0D130BD024602F19E
:105070003C0002E0036803F1200003688B42F9D191
:1050800003681B6A036070470021034A1160034AEA
:105090001180018070470000680000206C00002033
:1050A0002DE9F04105460C4616461F461548006896
:1050B00080F8346000201349096881F835003946CA
:1050C0001048006800F0A4FD6CB104F10808EC6021
:1050D000012229460B48006800F016F82946404690
:1050E00000F088F807E0002006490968A1F84600AA
:1050F00004490968086303480168204600F018F86D
:10510000BDE8F081E000002010B5A0F84620016362
:1051100000230AE000244C600C600C614C610C839D
:10512000CC61886020315C1CA3B29342F2DB10BDDD
:1051300030B548B14568C1F8BC5000F10804226898
:1051400093681D6AC56113E091F83450022D02D0B6
:10515000072D08D103E007A5C1F8BC5007E007A55B
:10516000C1F8BC5003E008A5C1F8BC5000BF00BFA7
:1051700030BD00005461736B205100005461736BAB
:105180002053656D000000002000000030B507A529
:10519000C1F8BC5000F1080422681AB193681D6A76
:1051A000C56101E001A5C56130BD0000200000001F
:1051B0002DE9F0410446256BB4F8467011E0D5F8AE
:1051C0000C8008F108063089012807D929463046A5
:1051D00000F05DF82946304600F00CF82035781EC6
:1051E00087B2002FEBD1BDE8F08100210160416062
:1051F00001817047F0B58E6896F8375007893FB93E
:105200000127078100274F600F600160416023E0A4
:1052100007897F1C0781026806E0946894F837705C
:10522000AF4200DD02E05268002AF6D100BF32B979
:1052300000274F6043680B60596041600CE01768BD
:105240002FB9116000270F604A60016004E0136805
:105250000B604A6059601160F0BD2DE9F0410446D1
:10526000256BB4F846600AE0D5F80C8008F1080711
:105270002946384600F00BF82035701E86B2002E05
:10528000F2DC0020A4F846002063BDE8F08110B5F0
:105290000489012C03D100240460446011E00C68EF
:1052A00024B94A680024146002600AE04C6824B9FA
:1052B0000B6800245C60436003E00B684A685A6036
:1052C00013600489641E048100244C600C6010BDCE
:1052D0002DE9F84306460C4617469846089D94F873
:1052E000360008285BD2DFE800F00405080906074D
:1052F000323300BF00BF00BF52E000BF94F834005B
:10530000032807D143463A4621463046009500F02F
:105310004AF803E0A765A4F85C80A56436B120468E
:10532000FFF79BFF21463046FFF730FF94F8360029
:10533000032802D1204601F057F8204600F02AF950
:1053400000203434A070607004F8340928E000BFF5
:1053500094F83400032807D143463A4621463046A4
:10536000009500F020F803E0A765A4F85C80A56430
:1053700036B12046FFF771FF21463046FFF706FFA2
:1053800094F83600072802D1204601F02DF80420B9
:105390003434A0700020607004F8340900E000BFCD
:1053A00000BFBDE8F883F0B50446059E086BB1F870
:1053B00046500AE0C768A74204D1046142610383F2
:1053C000C66104E020306F1EBDB2002DF2DC00BFCC
:1053D000F0BD000070B50025074C03E005F120008A
:1053E000C5B2241D20680028F8D02068FAF70BFF0A
:1053F0002844C5B2284670BD28000020002004E0E3
:105400000021034A42F82010401C0028F8D07047C1
:105410002800002030B5420900F01F030121C3F12C
:105420001F04A140034C54F822400C43014D45F8A1
:10543000224030BD2800002030B5420900F01F0393
:105440000121C3F11F04A140034C54F822408C43B6
:10545000014D45F8224030BD2800002009A1C1615E
:10546000002141610849096811B90021816105E005
:105470000549096881610449096848610249086071
:105480007047000020000000740000200021034A43
:105490001160034A118001807047000074000020F1
:1054A000780000202DE9F04F85B007468A469346E4
:1054B0001C460020029000BF00BFFAF799FE029040
:1054C00000BFFCF7B7F900BF07F108063089F0B953
:1054D00004F0100010B94FF0000801E04FF0100880
:1054E000DDE90E0143465A46CDE90001514607F178
:1054F0002000FFF707FD00BFFCF7B6F900BF0298D8
:10550000FAF77AFE00BF00BF05B0BDE8F08F04F4E3
:10551000007008B1358900E00125D6F8009011E04F
:10552000D9F808000390D9F8040004900E985B465F
:105530005246009038460399FFF7CAFEDDF81090F6
:10554000681E85B2002DEBD100BFFCF78DF900BFBE
:105550000298FAF751FE00BF00BF04F4004008B9FA
:10556000FEF780F900210F98018000BFCCE7000012
:1055700000210AE001EB4102054B03EB820000220F
:105580000281026042604A1CD1B22029F2D37047E6
:105590002C37002010B5044694F83700FFF73AFF87
:1055A00094F8370005490978884203D1204600F075
:1055B00027F802E0204600F003F810BD6E0000203E
:1055C00010B590F8373003EB43030C4C04EB830128
:1055D0000B893BB901230B810023C3600361086081
:1055E000486009E00B895B1C0B810B68C3600023DA
:1055F00003610A681061086010BD00002C370020AC
:1056000010B590F8373003EB43030B4C04EB8301E8
:105610000B893BB901230B810023C3600361086040
:10562000486008E00B895B1C0B810023C3604A685B
:105630000261D060486010BD2C3700202DE9F04198
:10564000054695F8370000EB4000124901EB800455
:105650002F69EE6887B946B900202081206060601C
:1056600095F83700FFF7E8FE0EE02089401E208104
:1056700000203061266007E02089401E2081FE6006
:105680000EB9676000E0376100202861E860BDE87E
:10569000F08100002C37002009A1C1610021416187
:1056A0000849096811B90021816105E005490968C7
:1056B0008161044909684861024908607047000037
:1056C000200000007C0000200021034A1160034AF2
:1056D00011800180704700007C00002080000020C5
:1056E0002DE9FF5F0446884691461D460020019043
:1056F00000BF00BFFAF77CFD019000BFFCF79AF8ED
:1057000000BF04F108073889002857D10420012878
:1057100004D0022816D004283AD127E0206AFF28B6
:105720000FD100BFFCF7A0F800BF0198FAF764FDA5
:1057300000BF00BF46F6C5502880002004B0BDE879
:10574000F09F26E04FF6FF71206A88420DD100BF1E
:10575000FCF78AF800BF0198FAF74EFD00BF00BFC2
:1057600046F6C55028800020E8E712E0206A401C79
:1057700068B900BFFCF778F800BF0198FAF73CFD64
:1057800000BF00BF46F6C55028800020D6E700E0E5
:1057900000BF00BF206A401C2062D4F820A0C4F8DB
:1057A000249000BFFCF760F800BF0198FAF724FDD1
:1057B00000BF00BF002028805046BFE708F40070FB
:1057C00008B13E8900E00126D7F800B011E0DBF80F
:1057D00008000290DBF80400039000231A46CDF87D
:1057E000009020460299FFF773FDDDF80CB0701EA3
:1057F00086B2002EEBD1D4F820A000BFFCF734F81D
:1058000000BF0198FAF7F8FC00BF00BF08F40040A1
:1058100008B9FEF727F80020288050468EE70000E0
:1058200086B00020009006E0B6490968480001AA49
:105830000021FEF74BFFB44800780128F4D101A8FD
:10584000FEF722FA0027B1480068AE49096888428D
:1058500005D9AE480068AB490968B0FBF1F727B934
:10586000AA4800680A21B0FBF1F749E1FCF7A8F863
:105870008246FBF7C9FFA649086000BF00BFFAF7E0
:10588000B7FC009000BFFBF7D5FF00BFA148006840
:10589000A149086000209F49086000BFFBF7E4FFB2
:1058A00000BF0098FAF7A8FC00BF00BF9B48006843
:1058B00099490968884248D99848006898498842B7
:1058C00005D242F2107003900120029023E0934829
:1058D00000689449884205D24FF47A7003900A20F8
:1058E000029018E08D4800688F49884203D26420F6
:1058F000039002900FE0894800688C49884205D2E5
:105900000A2003904FF47A70029004E00120039083
:1059100042F210700290814801680298B1FBF0F9E0
:105920007D49039809684843B0FBF9F042F21071D1
:10593000081A7F4908807F4800880988884207DA6A
:105940007B4800887B49088002E000207849088075
:10595000FEF7BEFA002500BF00BFFAF749FC009031
:1059600000BFFBF767FF00BF7348046800BFFBF789
:105970007BFF00BF0098FAF73FFC00BF00BF2EE09E
:1059800000BF00BFFAF734FC009000BFFBF752FFE6
:1059900000BF54F8980F6060002044F8980900BFD9
:1059A000FBF762FF00BF0098FAF726FC00BF00BFBC
:1059B000D4F89C00054400BF00BFFAF719FC009022
:1059C00000BFFBF737FF00BFD4F8B84000BFFBF7BC
:1059D0004BFF00BF0098FAF70FFC00BF00BF002C80
:1059E000CED145B34E48854205D242F210700590A3
:1059F0004FF0010B1BE04B48854205D24FF47A7003
:105A000005904FF00A0B12E04748854203D264200C
:105A1000059083460BE04548854204D20A20059054
:105A20004FF47A7B03E00120059042F2107BB5FB36
:105A3000FBF0049003E0002005900120049000BFDB
:105A400000BFFAF7D5FB009000BFFBF7F3FE00BFE5
:105A50003948046800BFFBF707FF00BF0098FAF75A
:105A6000CBFB00BF00BF2FE0D4F89C000599484352
:105A70000499B0FBF1F086B242F21070864200D970
:105A80000646A4F88860B4F88A00B04201DAA4F8A7
:105A90008A6001AB04F1A802111D2046FEF7EEFB5F
:105AA00000BF00BFFAF7A4FB009000BFFBF7C2FEE7
:105AB00000BFD4F8B84000BFFBF7D6FE00BF009887
:105AC000FAF79AFB00BF00BF002CCDD11B4800782D
:105AD000012805D100201949087001A8FEF7D4F863
